{
  "_format": "hh-sol-artifact-1",
  "contractName": "FineManagement",
  "sourceName": "contracts/FineManagement.sol",
  "abi": [
    {
      "inputs": [],
      "stateMutability": "nonpayable",
      "type": "constructor"
    },
    {
      "inputs": [
        {
          "internalType": "address",
          "name": "owner",
          "type": "address"
        }
      ],
      "name": "OwnableInvalidOwner",
      "type": "error"
    },
    {
      "inputs": [
        {
          "internalType": "address",
          "name": "account",
          "type": "address"
        }
      ],
      "name": "OwnableUnauthorizedAccount",
      "type": "error"
    },
    {
      "anonymous": false,
      "inputs": [
        {
          "indexed": true,
          "internalType": "uint256",
          "name": "fineId",
          "type": "uint256"
        },
        {
          "indexed": true,
          "internalType": "string",
          "name": "plateNumber",
          "type": "string"
        },
        {
          "indexed": false,
          "internalType": "string",
          "name": "evidenceCID",
          "type": "string"
        },
        {
          "indexed": false,
          "internalType": "string",
          "name": "ownerIdentifier",
          "type": "string"
        },
        {
          "indexed": false,
          "internalType": "uint256",
          "name": "cost",
          "type": "uint256"
        },
        {
          "indexed": false,
          "internalType": "uint256",
          "name": "timestamp",
          "type": "uint256"
        }
      ],
      "name": "FineRegistered",
      "type": "event"
    },
    {
      "anonymous": false,
      "inputs": [
        {
          "indexed": true,
          "internalType": "uint256",
          "name": "fineId",
          "type": "uint256"
        },
        {
          "indexed": true,
          "internalType": "enum FineManagement.FineState",
          "name": "oldState",
          "type": "uint8"
        },
        {
          "indexed": true,
          "internalType": "enum FineManagement.FineState",
          "name": "newState",
          "type": "uint8"
        },
        {
          "indexed": false,
          "internalType": "string",
          "name": "reason",
          "type": "string"
        },
        {
          "indexed": false,
          "internalType": "uint256",
          "name": "timestamp",
          "type": "uint256"
        }
      ],
      "name": "FineStatusUpdated",
      "type": "event"
    },
    {
      "anonymous": false,
      "inputs": [
        {
          "indexed": true,
          "internalType": "address",
          "name": "previousOwner",
          "type": "address"
        },
        {
          "indexed": true,
          "internalType": "address",
          "name": "newOwner",
          "type": "address"
        }
      ],
      "name": "OwnershipTransferred",
      "type": "event"
    },
    {
      "inputs": [
        {
          "internalType": "address",
          "name": "_operator",
          "type": "address"
        }
      ],
      "name": "addOperator",
      "outputs": [],
      "stateMutability": "nonpayable",
      "type": "function"
    },
    {
      "inputs": [
        {
          "internalType": "uint256",
          "name": "",
          "type": "uint256"
        },
        {
          "internalType": "uint256",
          "name": "",
          "type": "uint256"
        }
      ],
      "name": "fineStatusHistory",
      "outputs": [
        {
          "internalType": "uint256",
          "name": "lastUpdatedTimestamp",
          "type": "uint256"
        },
        {
          "internalType": "enum FineManagement.FineState",
          "name": "oldState",
          "type": "uint8"
        },
        {
          "internalType": "enum FineManagement.FineState",
          "name": "newState",
          "type": "uint8"
        },
        {
          "internalType": "string",
          "name": "reason",
          "type": "string"
        },
        {
          "internalType": "address",
          "name": "updatedBy",
          "type": "address"
        }
      ],
      "stateMutability": "view",
      "type": "function"
    },
    {
      "inputs": [
        {
          "internalType": "uint256",
          "name": "",
          "type": "uint256"
        }
      ],
      "name": "fines",
      "outputs": [
        {
          "internalType": "uint256",
          "name": "id",
          "type": "uint256"
        },
        {
          "internalType": "string",
          "name": "plateNumber",
          "type": "string"
        },
        {
          "internalType": "string",
          "name": "evidenceCID",
          "type": "string"
        },
        {
          "internalType": "string",
          "name": "location",
          "type": "string"
        },
        {
          "internalType": "uint256",
          "name": "timestamp",
          "type": "uint256"
        },
        {
          "internalType": "string",
          "name": "infractionType",
          "type": "string"
        },
        {
          "internalType": "uint256",
          "name": "cost",
          "type": "uint256"
        },
        {
          "internalType": "string",
          "name": "ownerIdentifier",
          "type": "string"
        },
        {
          "internalType": "enum FineManagement.FineState",
          "name": "currentState",
          "type": "uint8"
        },
        {
          "internalType": "address",
          "name": "registeredBy",
          "type": "address"
        },
        {
          "internalType": "string",
          "name": "externalSystemId",
          "type": "string"
        }
      ],
      "stateMutability": "view",
      "type": "function"
    },
    {
      "inputs": [
        {
          "internalType": "string",
          "name": "",
          "type": "string"
        },
        {
          "internalType": "uint256",
          "name": "",
          "type": "uint256"
        }
      ],
      "name": "finesByOwner",
      "outputs": [
        {
          "internalType": "uint256",
          "name": "",
          "type": "uint256"
        }
      ],
      "stateMutability": "view",
      "type": "function"
    },
    {
      "inputs": [
        {
          "internalType": "string",
          "name": "",
          "type": "string"
        },
        {
          "internalType": "uint256",
          "name": "",
          "type": "uint256"
        }
      ],
      "name": "finesByPlate",
      "outputs": [
        {
          "internalType": "uint256",
          "name": "",
          "type": "uint256"
        }
      ],
      "stateMutability": "view",
      "type": "function"
    },
    {
      "inputs": [],
      "name": "getAllFineCount",
      "outputs": [
        {
          "internalType": "uint256",
          "name": "",
          "type": "uint256"
        }
      ],
      "stateMutability": "view",
      "type": "function"
    },
    {
      "inputs": [
        {
          "internalType": "uint256",
          "name": "_fineId",
          "type": "uint256"
        }
      ],
      "name": "getFineDetails",
      "outputs": [
        {
          "components": [
            {
              "internalType": "uint256",
              "name": "id",
              "type": "uint256"
            },
            {
              "internalType": "string",
              "name": "plateNumber",
              "type": "string"
            },
            {
              "internalType": "string",
              "name": "evidenceCID",
              "type": "string"
            },
            {
              "internalType": "string",
              "name": "location",
              "type": "string"
            },
            {
              "internalType": "uint256",
              "name": "timestamp",
              "type": "uint256"
            },
            {
              "internalType": "string",
              "name": "infractionType",
              "type": "string"
            },
            {
              "internalType": "uint256",
              "name": "cost",
              "type": "uint256"
            },
            {
              "internalType": "string",
              "name": "ownerIdentifier",
              "type": "string"
            },
            {
              "internalType": "enum FineManagement.FineState",
              "name": "currentState",
              "type": "uint8"
            },
            {
              "internalType": "address",
              "name": "registeredBy",
              "type": "address"
            },
            {
              "internalType": "string",
              "name": "externalSystemId",
              "type": "string"
            }
          ],
          "internalType": "struct FineManagement.Fine",
          "name": "",
          "type": "tuple"
        }
      ],
      "stateMutability": "view",
      "type": "function"
    },
    {
      "inputs": [
        {
          "internalType": "uint256",
          "name": "_fineId",
          "type": "uint256"
        }
      ],
      "name": "getFineRegistrationDetails",
      "outputs": [
        {
          "internalType": "uint256",
          "name": "blockNumber",
          "type": "uint256"
        },
        {
          "internalType": "uint256",
          "name": "timestamp",
          "type": "uint256"
        },
        {
          "internalType": "uint256",
          "name": "statusHistoryLength",
          "type": "uint256"
        },
        {
          "internalType": "address",
          "name": "registeredBy",
          "type": "address"
        },
        {
          "internalType": "string",
          "name": "externalSystemId",
          "type": "string"
        }
      ],
      "stateMutability": "view",
      "type": "function"
    },
    {
      "inputs": [
        {
          "internalType": "uint256",
          "name": "_fineId",
          "type": "uint256"
        },
        {
          "internalType": "uint256",
          "name": "_page",
          "type": "uint256"
        },
        {
          "internalType": "uint256",
          "name": "_pageSize",
          "type": "uint256"
        }
      ],
      "name": "getFineStatusHistory",
      "outputs": [
        {
          "components": [
            {
              "internalType": "uint256",
              "name": "lastUpdatedTimestamp",
              "type": "uint256"
            },
            {
              "internalType": "enum FineManagement.FineState",
              "name": "oldState",
              "type": "uint8"
            },
            {
              "internalType": "enum FineManagement.FineState",
              "name": "newState",
              "type": "uint8"
            },
            {
              "internalType": "string",
              "name": "reason",
              "type": "string"
            },
            {
              "internalType": "address",
              "name": "updatedBy",
              "type": "address"
            }
          ],
          "internalType": "struct FineManagement.FineStatusUpdate[]",
          "name": "updates",
          "type": "tuple[]"
        },
        {
          "internalType": "uint256",
          "name": "totalUpdates",
          "type": "uint256"
        }
      ],
      "stateMutability": "view",
      "type": "function"
    },
    {
      "inputs": [
        {
          "internalType": "string",
          "name": "_plateNumber",
          "type": "string"
        }
      ],
      "name": "getFinesByPlate",
      "outputs": [
        {
          "internalType": "uint256[]",
          "name": "",
          "type": "uint256[]"
        }
      ],
      "stateMutability": "view",
      "type": "function"
    },
    {
      "inputs": [
        {
          "internalType": "uint256",
          "name": "_page",
          "type": "uint256"
        },
        {
          "internalType": "uint256",
          "name": "_pageSize",
          "type": "uint256"
        }
      ],
      "name": "getPaginatedFines",
      "outputs": [
        {
          "components": [
            {
              "internalType": "uint256",
              "name": "id",
              "type": "uint256"
            },
            {
              "internalType": "string",
              "name": "plateNumber",
              "type": "string"
            },
            {
              "internalType": "string",
              "name": "evidenceCID",
              "type": "string"
            },
            {
              "internalType": "string",
              "name": "location",
              "type": "string"
            },
            {
              "internalType": "uint256",
              "name": "timestamp",
              "type": "uint256"
            },
            {
              "internalType": "string",
              "name": "infractionType",
              "type": "string"
            },
            {
              "internalType": "uint256",
              "name": "cost",
              "type": "uint256"
            },
            {
              "internalType": "string",
              "name": "ownerIdentifier",
              "type": "string"
            },
            {
              "internalType": "enum FineManagement.FineState",
              "name": "currentState",
              "type": "uint8"
            },
            {
              "internalType": "address",
              "name": "registeredBy",
              "type": "address"
            },
            {
              "internalType": "string",
              "name": "externalSystemId",
              "type": "string"
            }
          ],
          "internalType": "struct FineManagement.Fine[]",
          "name": "",
          "type": "tuple[]"
        }
      ],
      "stateMutability": "view",
      "type": "function"
    },
    {
      "inputs": [
        {
          "internalType": "address",
          "name": "",
          "type": "address"
        }
      ],
      "name": "operators",
      "outputs": [
        {
          "internalType": "bool",
          "name": "",
          "type": "bool"
        }
      ],
      "stateMutability": "view",
      "type": "function"
    },
    {
      "inputs": [],
      "name": "owner",
      "outputs": [
        {
          "internalType": "address",
          "name": "",
          "type": "address"
        }
      ],
      "stateMutability": "view",
      "type": "function"
    },
    {
      "inputs": [
        {
          "internalType": "string",
          "name": "_plateNumber",
          "type": "string"
        },
        {
          "internalType": "string",
          "name": "_evidenceCID",
          "type": "string"
        },
        {
          "internalType": "string",
          "name": "_location",
          "type": "string"
        },
        {
          "internalType": "string",
          "name": "_infractionType",
          "type": "string"
        },
        {
          "internalType": "uint256",
          "name": "_cost",
          "type": "uint256"
        },
        {
          "internalType": "string",
          "name": "_ownerIdentifier",
          "type": "string"
        },
        {
          "internalType": "string",
          "name": "_externalSystemId",
          "type": "string"
        }
      ],
      "name": "registerFine",
      "outputs": [
        {
          "internalType": "uint256",
          "name": "",
          "type": "uint256"
        }
      ],
      "stateMutability": "nonpayable",
      "type": "function"
    },
    {
      "inputs": [
        {
          "internalType": "address",
          "name": "_operator",
          "type": "address"
        }
      ],
      "name": "removeOperator",
      "outputs": [],
      "stateMutability": "nonpayable",
      "type": "function"
    },
    {
      "inputs": [],
      "name": "renounceOwnership",
      "outputs": [],
      "stateMutability": "nonpayable",
      "type": "function"
    },
    {
      "inputs": [
        {
          "internalType": "address",
          "name": "newOwner",
          "type": "address"
        }
      ],
      "name": "transferOwnership",
      "outputs": [],
      "stateMutability": "nonpayable",
      "type": "function"
    },
    {
      "inputs": [
        {
          "internalType": "uint256",
          "name": "_fineId",
          "type": "uint256"
        },
        {
          "internalType": "enum FineManagement.FineState",
          "name": "_newState",
          "type": "uint8"
        },
        {
          "internalType": "string",
          "name": "_reason",
          "type": "string"
        }
      ],
      "name": "updateFineStatus",
      "outputs": [],
      "stateMutability": "nonpayable",
      "type": "function"
    }
  ],
  "bytecode": "0x6080604052348015600f57600080fd5b503380603557604051631e4fbdf760e01b81526000600482015260240160405180910390fd5b603c81605b565b50336000908152600660205260409020805460ff1916600117905560ab565b600080546001600160a01b038381166001600160a01b0319831681178455604051919092169283917f8be0079c531659141344cd1fd0a4f28419497f9722a3daafe3b4186f6b6457e09190a35050565b6129c7806100ba6000396000f3fe608060405234801561001057600080fd5b50600436106101165760003560e01c806397706466116100a2578063ac908f8b11610071578063ac908f8b1461028c578063d39b4d801461029f578063f2fde38b146102b2578063f8a92aa4146102c5578063fdd0cf44146102e657600080fd5b806397706466146102225780639870d7fe14610242578063abfa54d314610255578063ac8a584a1461027957600080fd5b8063715018a6116100e9578063715018a6146101b85780637532f3f2146101c25780637bd79c04146101ec57806382ca1606146101f45780638da5cb5b1461020757600080fd5b806313e7c9d81461011b5780633404e2461461015357806339ca5b19146101735780636d34538514610197575b600080fd5b61013e610129366004611f90565b60066020526000908152604090205460ff1681565b60405190151581526020015b60405180910390f35b610166610161366004611fc0565b610306565b60405161014a9190612154565b610186610181366004612167565b610742565b60405161014a959493929190612189565b6101aa6101a5366004612279565b61082b565b60405190815260200161014a565b6101c061086b565b005b6101d56101d0366004611fc0565b61087f565b60405161014a9b9a999897969594939291906122bd565b6001546101aa565b6101aa610202366004612377565b610c12565b6000546040516001600160a01b03909116815260200161014a565b610235610230366004612492565b611148565b60405161014a91906124ce565b6101c0610250366004611f90565b6111b8565b610268610263366004611fc0565b6111e4565b60405161014a959493929190612511565b6101c0610287366004611f90565b6112f4565b6101c061029a36600461254f565b61131d565b6101aa6102ad366004612279565b6115de565b6101c06102c0366004611f90565b611609565b6102d86102d33660046125ab565b611647565b60405161014a9291906125d7565b6102f96102f4366004612167565b611963565b60405161014a9190612695565b61030e611f25565b60008281526002602052604081205490036103445760405162461bcd60e51b815260040161033b906126fa565b60405180910390fd5b60026000838152602001908152602001600020604051806101600160405290816000820154815260200160018201805461037d90612727565b80601f01602080910402602001604051908101604052809291908181526020018280546103a990612727565b80156103f65780601f106103cb576101008083540402835291602001916103f6565b820191906000526020600020905b8154815290600101906020018083116103d957829003601f168201915b5050505050815260200160028201805461040f90612727565b80601f016020809104026020016040519081016040528092919081815260200182805461043b90612727565b80156104885780601f1061045d57610100808354040283529160200191610488565b820191906000526020600020905b81548152906001019060200180831161046b57829003601f168201915b505050505081526020016003820180546104a190612727565b80601f01602080910402602001604051908101604052809291908181526020018280546104cd90612727565b801561051a5780601f106104ef5761010080835404028352916020019161051a565b820191906000526020600020905b8154815290600101906020018083116104fd57829003601f168201915b505050505081526020016004820154815260200160058201805461053d90612727565b80601f016020809104026020016040519081016040528092919081815260200182805461056990612727565b80156105b65780601f1061058b576101008083540402835291602001916105b6565b820191906000526020600020905b81548152906001019060200180831161059957829003601f168201915b50505050508152602001600682015481526020016007820180546105d990612727565b80601f016020809104026020016040519081016040528092919081815260200182805461060590612727565b80156106525780601f1061062757610100808354040283529160200191610652565b820191906000526020600020905b81548152906001019060200180831161063557829003601f168201915b5050509183525050600882015460209091019060ff16600481111561067957610679612029565b600481111561068a5761068a612029565b8152600882015461010090046001600160a01b031660208201526009820180546040909201916106b990612727565b80601f01602080910402602001604051908101604052809291908181526020018280546106e590612727565b80156107325780601f1061070757610100808354040283529160200191610732565b820191906000526020600020905b81548152906001019060200180831161071557829003601f168201915b5050505050815250509050919050565b6003602052816000526040600020818154811061075e57600080fd5b600091825260209091206004909102018054600182015460028301805492955060ff8083169550610100909204909116929161079990612727565b80601f01602080910402602001604051908101604052809291908181526020018280546107c590612727565b80156108125780601f106107e757610100808354040283529160200191610812565b820191906000526020600020905b8154815290600101906020018083116107f557829003601f168201915b505050600390930154919250506001600160a01b031685565b8151602081840181018051600482529282019185019190912091905280548290811061085657600080fd5b90600052602060002001600091509150505481565b610873611ea8565b61087d6000611ed5565b565b600260205260009081526040902080546001820180549192916108a190612727565b80601f01602080910402602001604051908101604052809291908181526020018280546108cd90612727565b801561091a5780601f106108ef5761010080835404028352916020019161091a565b820191906000526020600020905b8154815290600101906020018083116108fd57829003601f168201915b50505050509080600201805461092f90612727565b80601f016020809104026020016040519081016040528092919081815260200182805461095b90612727565b80156109a85780601f1061097d576101008083540402835291602001916109a8565b820191906000526020600020905b81548152906001019060200180831161098b57829003601f168201915b5050505050908060030180546109bd90612727565b80601f01602080910402602001604051908101604052809291908181526020018280546109e990612727565b8015610a365780601f10610a0b57610100808354040283529160200191610a36565b820191906000526020600020905b815481529060010190602001808311610a1957829003601f168201915b505050505090806004015490806005018054610a5190612727565b80601f0160208091040260200160405190810160405280929190818152602001828054610a7d90612727565b8015610aca5780601f10610a9f57610100808354040283529160200191610aca565b820191906000526020600020905b815481529060010190602001808311610aad57829003601f168201915b505050505090806006015490806007018054610ae590612727565b80601f0160208091040260200160405190810160405280929190818152602001828054610b1190612727565b8015610b5e5780601f10610b3357610100808354040283529160200191610b5e565b820191906000526020600020905b815481529060010190602001808311610b4157829003601f168201915b505050506008830154600984018054939460ff8316946101009093046001600160a01b0316935091610b8f90612727565b80601f0160208091040260200160405190810160405280929190818152602001828054610bbb90612727565b8015610c085780601f10610bdd57610100808354040283529160200191610c08565b820191906000526020600020905b815481529060010190602001808311610beb57829003601f168201915b505050505090508b565b3360009081526006602052604081205460ff1680610c49575033610c3e6000546001600160a01b031690565b6001600160a01b0316145b610c875760405162461bcd60e51b815260206004820152600f60248201526e2737ba1030b71037b832b930ba37b960891b604482015260640161033b565b6000885111610cd85760405162461bcd60e51b815260206004820152601860248201527f506c617465206e756d6265722069732072657175697265640000000000000000604482015260640161033b565b6000875111610d295760405162461bcd60e51b815260206004820152601860248201527f45766964656e6365204349442069732072657175697265640000000000000000604482015260640161033b565b6000865111610d715760405162461bcd60e51b8152602060048201526014602482015273131bd8d85d1a5bdb881a5cc81c995c5d5a5c995960621b604482015260640161033b565b6000855111610dc25760405162461bcd60e51b815260206004820152601b60248201527f496e6672616374696f6e20747970652069732072657175697265640000000000604482015260640161033b565b60008411610e125760405162461bcd60e51b815260206004820152601e60248201527f436f7374206d7573742062652067726561746572207468616e207a65726f0000604482015260640161033b565b6001806000828254610e249190612777565b909155505060018054604080516101608101825282815260208082018d81528284018d9052606083018c905242608084015260a083018b905260c083018a905260e083018990526000610100840181905233610120850152610140840189905285815260029092529290208151815591519293909290820190610ea790826127d9565b5060408201516002820190610ebc90826127d9565b5060608201516003820190610ed190826127d9565b506080820151600482015560a08201516005820190610ef090826127d9565b5060c0820151600682015560e08201516007820190610f0f90826127d9565b5061010082015160088201805460ff19166001836004811115610f3457610f34612029565b02179055506101208201516008820180546001600160a01b0390921661010002610100600160a81b03199092169190911790556101408201516009820190610f7c90826127d9565b50905050600489604051610f909190612897565b90815260405190819003602090810182208054600181018255600091825291902001829055600590610fc3908690612897565b908152604080516020928190038301812080546001808201835560009283528583209091018690558582526003855283822060a0840185524284528584018381528486018490528551808701909652600f86526e119a5b99481c9959da5cdd195c9959608a1b8688015260608501959095523360808501528054808301825590835294909120825160049586029091019081559251838201805493959193909260ff1990911691849081111561107b5761107b612029565b0217905550604082015160018201805461ff0019166101008360048111156110a5576110a5612029565b0217905550606082015160028201906110be90826127d9565b5060809190910151600390910180546001600160a01b0319166001600160a01b039092169190911790556040516110f6908a90612897565b6040518091039020817fd8c1fbde4939ee67aba23b373b9e01d5ed6f87248d140608b9410c270cc9c08f8a87894260405161113494939291906128b3565b60405180910390a398975050505050505050565b606060048260405161115a9190612897565b90815260408051918290036020908101832080548083028501830190935282845291908301828280156111ac57602002820191906000526020600020905b815481526020019060010190808311611198575b50505050509050919050565b6111c0611ea8565b6001600160a01b03166000908152600660205260409020805460ff19166001179055565b600081815260026020526040812054819081908190606090820361121a5760405162461bcd60e51b815260040161033b906126fa565b600086815260026020908152604080832060039092529091205460088201546009830180544393429390926101009091046001600160a01b031691819061126090612727565b80601f016020809104026020016040519081016040528092919081815260200182805461128c90612727565b80156112d95780601f106112ae576101008083540402835291602001916112d9565b820191906000526020600020905b8154815290600101906020018083116112bc57829003601f168201915b50505050509050955095509550955095505091939590929450565b6112fc611ea8565b6001600160a01b03166000908152600660205260409020805460ff19169055565b3360009081526006602052604090205460ff16806113545750336113496000546001600160a01b031690565b6001600160a01b0316145b6113925760405162461bcd60e51b815260206004820152600f60248201526e2737ba1030b71037b832b930ba37b960891b604482015260640161033b565b600083815260026020526040812080549091036113c15760405162461bcd60e51b815260040161033b906126fa565b8260048111156113d3576113d3612029565b600882015460ff1660048111156113ec576113ec612029565b036114395760405162461bcd60e51b815260206004820152601960248201527f537461746520697320616c7265616479207468652073616d6500000000000000604482015260640161033b565b60088101805460ff811691859160ff1916600183600481111561145e5761145e612029565b0217905550600360008681526020019081526020016000206040518060a0016040528042815260200183600481111561149957611499612029565b81526020018660048111156114b0576114b0612029565b815260208082018790523360409092019190915282546001818101855560009485529382902083516004928302909101908155918301518285018054949593949193909260ff1990921691849081111561150c5761150c612029565b0217905550604082015160018201805461ff00191661010083600481111561153657611536612029565b02179055506060820151600282019061154f90826127d9565b5060809190910151600390910180546001600160a01b0319166001600160a01b0390921691909117905583600481111561158b5761158b612029565b81600481111561159d5761159d612029565b867f3ae5ab0b203e4f2e835bd70b078468d07dd59ba58eda695045085b43d3834deb86426040516115cf9291906128ec565b60405180910390a45050505050565b8151602081840181018051600582529282019185019190912091905280548290811061085657600080fd5b611611611ea8565b6001600160a01b03811661163b57604051631e4fbdf760e01b81526000600482015260240161033b565b61164481611ed5565b50565b6000838152600260205260408120546060919081036116785760405162461bcd60e51b815260040161033b906126fa565b600083116116985760405162461bcd60e51b815260040161033b9061290e565b506000848152600360205260408120805491846116b6600188612951565b6116c09190612964565b905082811061172f576040805160008082526020820190925290611725565b6117126040805160a081019091526000808252602082019081526020016000815260606020820152600060409091015290565b8152602001906001900390816116df5790505b509350505061195b565b600061173b8683612777565b9050838111156117485750825b6117528282612951565b6001600160401b03811115611769576117696121d6565b6040519080825280602002602001820160405280156117cd57816020015b6117ba6040805160a081019091526000808252602082019081526020016000815260606020820152600060409091015290565b8152602001906001900390816117875790505b509450815b81811015611956578381815481106117ec576117ec61297b565b90600052602060002090600402016040518060a0016040529081600082015481526020016001820160009054906101000a900460ff16600481111561183357611833612029565b600481111561184457611844612029565b81526020016001820160019054906101000a900460ff16600481111561186c5761186c612029565b600481111561187d5761187d612029565b815260200160028201805461189190612727565b80601f01602080910402602001604051908101604052809291908181526020018280546118bd90612727565b801561190a5780601f106118df5761010080835404028352916020019161190a565b820191906000526020600020905b8154815290600101906020018083116118ed57829003601f168201915b5050509183525050600391909101546001600160a01b0316602090910152866119338584612951565b815181106119435761194361297b565b60209081029190910101526001016117d2565b505050505b935093915050565b6060600082116119855760405162461bcd60e51b815260040161033b9061290e565b600180549060009084906119999087612951565b6119a39190612964565b905060006119b18583612777565b90508282106119f65760408051600080825260208201909252906119eb565b6119d8611f25565b8152602001906001900390816119d05790505b509350505050611ea2565b82811115611a015750815b6000611a0d8383612951565b6001600160401b03811115611a2457611a246121d6565b604051908082528060200260200182016040528015611a5d57816020015b611a4a611f25565b815260200190600190039081611a425790505b509050825b82811015611e9b5760026000611a79836001612777565b81526020019081526020016000206040518061016001604052908160008201548152602001600182018054611aad90612727565b80601f0160208091040260200160405190810160405280929190818152602001828054611ad990612727565b8015611b265780601f10611afb57610100808354040283529160200191611b26565b820191906000526020600020905b815481529060010190602001808311611b0957829003601f168201915b50505050508152602001600282018054611b3f90612727565b80601f0160208091040260200160405190810160405280929190818152602001828054611b6b90612727565b8015611bb85780601f10611b8d57610100808354040283529160200191611bb8565b820191906000526020600020905b815481529060010190602001808311611b9b57829003601f168201915b50505050508152602001600382018054611bd190612727565b80601f0160208091040260200160405190810160405280929190818152602001828054611bfd90612727565b8015611c4a5780601f10611c1f57610100808354040283529160200191611c4a565b820191906000526020600020905b815481529060010190602001808311611c2d57829003601f168201915b5050505050815260200160048201548152602001600582018054611c6d90612727565b80601f0160208091040260200160405190810160405280929190818152602001828054611c9990612727565b8015611ce65780601f10611cbb57610100808354040283529160200191611ce6565b820191906000526020600020905b815481529060010190602001808311611cc957829003601f168201915b5050505050815260200160068201548152602001600782018054611d0990612727565b80601f0160208091040260200160405190810160405280929190818152602001828054611d3590612727565b8015611d825780601f10611d5757610100808354040283529160200191611d82565b820191906000526020600020905b815481529060010190602001808311611d6557829003601f168201915b5050509183525050600882015460209091019060ff166004811115611da957611da9612029565b6004811115611dba57611dba612029565b8152600882015461010090046001600160a01b03166020820152600982018054604090920191611de990612727565b80601f0160208091040260200160405190810160405280929190818152602001828054611e1590612727565b8015611e625780601f10611e3757610100808354040283529160200191611e62565b820191906000526020600020905b815481529060010190602001808311611e4557829003601f168201915b505050505081525050828583611e789190612951565b81518110611e8857611e8861297b565b6020908102919091010152600101611a62565b5093505050505b92915050565b6000546001600160a01b0316331461087d5760405163118cdaa760e01b815233600482015260240161033b565b600080546001600160a01b038381166001600160a01b0319831681178455604051919092169283917f8be0079c531659141344cd1fd0a4f28419497f9722a3daafe3b4186f6b6457e09190a35050565b604051806101600160405280600081526020016060815260200160608152602001606081526020016000815260200160608152602001600081526020016060815260200160006004811115611f7c57611f7c612029565b815260006020820152606060409091015290565b600060208284031215611fa257600080fd5b81356001600160a01b0381168114611fb957600080fd5b9392505050565b600060208284031215611fd257600080fd5b5035919050565b60005b83811015611ff4578181015183820152602001611fdc565b50506000910152565b60008151808452612015816020860160208601611fd9565b601f01601f19169290920160200192915050565b634e487b7160e01b600052602160045260246000fd5b6005811061205d57634e487b7160e01b600052602160045260246000fd5b9052565b80518252600060208201516101606020850152612082610160850182611ffd565b90506040830151848203604086015261209b8282611ffd565b915050606083015184820360608601526120b58282611ffd565b9150506080830151608085015260a083015184820360a08601526120d98282611ffd565b91505060c083015160c085015260e083015184820360e08601526120fd8282611ffd565b91505061010083015161211461010086018261203f565b506101208301516121316101208601826001600160a01b03169052565b5061014083015184820361014086015261214b8282611ffd565b95945050505050565b602081526000611fb96020830184612061565b6000806040838503121561217a57600080fd5b50508035926020909101359150565b858152612199602082018661203f565b6121a6604082018561203f565b60a0606082015260006121bc60a0830185611ffd565b905060018060a01b03831660808301529695505050505050565b634e487b7160e01b600052604160045260246000fd5b600082601f8301126121fd57600080fd5b81356001600160401b03811115612216576122166121d6565b604051601f8201601f19908116603f011681016001600160401b0381118282101715612244576122446121d6565b60405281815283820160200185101561225c57600080fd5b816020850160208301376000918101602001919091529392505050565b6000806040838503121561228c57600080fd5b82356001600160401b038111156122a257600080fd5b6122ae858286016121ec565b95602094909401359450505050565b8b8152610160602082015260006122d861016083018d611ffd565b82810360408401526122ea818d611ffd565b905082810360608401526122fe818c611ffd565b905089608084015282810360a0840152612318818a611ffd565b90508760c084015282810360e08401526123328188611ffd565b905061234261010084018761203f565b6001600160a01b0385166101208401528281036101408401526123658185611ffd565b9e9d5050505050505050505050505050565b600080600080600080600060e0888a03121561239257600080fd5b87356001600160401b038111156123a857600080fd5b6123b48a828b016121ec565b97505060208801356001600160401b038111156123d057600080fd5b6123dc8a828b016121ec565b96505060408801356001600160401b038111156123f857600080fd5b6124048a828b016121ec565b95505060608801356001600160401b0381111561242057600080fd5b61242c8a828b016121ec565b9450506080880135925060a08801356001600160401b0381111561244f57600080fd5b61245b8a828b016121ec565b92505060c08801356001600160401b0381111561247757600080fd5b6124838a828b016121ec565b91505092959891949750929550565b6000602082840312156124a457600080fd5b81356001600160401b038111156124ba57600080fd5b6124c6848285016121ec565b949350505050565b602080825282518282018190526000918401906040840190835b818110156125065783518352602093840193909201916001016124e8565b509095945050505050565b85815284602082015283604082015260018060a01b038316606082015260a06080820152600061254460a0830184611ffd565b979650505050505050565b60008060006060848603121561256457600080fd5b8335925060208401356005811061257a57600080fd5b915060408401356001600160401b0381111561259557600080fd5b6125a1868287016121ec565b9150509250925092565b6000806000606084860312156125c057600080fd5b505081359360208301359350604090920135919050565b6000604082016040835280855180835260608501915060608160051b86010192506020870160005b8281101561268157605f198786030184528151805186526020810151612628602088018261203f565b50604081015161263b604088018261203f565b50606081015160a0606088015261265560a0880182611ffd565b6080928301516001600160a01b03169790920196909652945060209384019391909101906001016125ff565b505050506020929092019290925292915050565b6000602082016020835280845180835260408501915060408160051b86010192506020860160005b828110156126ee57603f198786030184526126d9858351612061565b945060209384019391909101906001016126bd565b50929695505050505050565b602080825260139082015272119a5b9948191bd95cc81b9bdd08195e1a5cdd606a1b604082015260600190565b600181811c9082168061273b57607f821691505b60208210810361275b57634e487b7160e01b600052602260045260246000fd5b50919050565b634e487b7160e01b600052601160045260246000fd5b80820180821115611ea257611ea2612761565b601f8211156127d457806000526020600020601f840160051c810160208510156127b15750805b601f840160051c820191505b818110156127d157600081556001016127bd565b50505b505050565b81516001600160401b038111156127f2576127f26121d6565b612806816128008454612727565b8461278a565b6020601f82116001811461283a57600083156128225750848201515b600019600385901b1c1916600184901b1784556127d1565b600084815260208120601f198516915b8281101561286a578785015182556020948501946001909201910161284a565b50848210156128885786840151600019600387901b60f8161c191681555b50505050600190811b01905550565b600082516128a9818460208701611fd9565b9190910192915050565b6080815260006128c66080830187611ffd565b82810360208401526128d88187611ffd565b604084019590955250506060015292915050565b6040815260006128ff6040830185611ffd565b90508260208301529392505050565b60208082526023908201527f506167652073697a65206d7573742062652067726561746572207468616e207a60408201526265726f60e81b606082015260800190565b81810381811115611ea257611ea2612761565b8082028115828204841417611ea257611ea2612761565b634e487b7160e01b600052603260045260246000fdfea2646970667358221220f81a69907291e30fac92a808460736dcece3956da439079c702a460d1b09e3bc64736f6c634300081c0033",
  "linkReferences": {},
  "deployedLinkReferences": {}
}